{
	"_format": "hh-sol-artifact-1",
	"contractName": "TripPortal",
	"sourceName": "contracts/TripPortal.sol",
	"abi": [
		{
			"inputs": [],
			"stateMutability": "nonpayable",
			"type": "constructor"
		},
		{
			"anonymous": false,
			"inputs": [
				{
					"indexed": true,
					"internalType": "address",
					"name": "from",
					"type": "address"
				},
				{
					"indexed": false,
					"internalType": "uint256",
					"name": "timestamp",
					"type": "uint256"
				},
				{
					"indexed": false,
					"internalType": "string",
					"name": "location",
					"type": "string"
				}
			],
			"name": "NewTrip",
			"type": "event"
		},
		{
			"inputs": [
				{
					"internalType": "string",
					"name": "_location",
					"type": "string"
				}
			],
			"name": "addTrip",
			"outputs": [],
			"stateMutability": "nonpayable",
			"type": "function"
		},
		{
			"inputs": [],
			"name": "getAllTrips",
			"outputs": [
				{
					"components": [
						{
							"internalType": "address",
							"name": "creator",
							"type": "address"
						},
						{
							"internalType": "string",
							"name": "location",
							"type": "string"
						},
						{
							"internalType": "uint256",
							"name": "timestamp",
							"type": "uint256"
						}
					],
					"internalType": "struct TripPortal.Trip[]",
					"name": "",
					"type": "tuple[]"
				}
			],
			"stateMutability": "view",
			"type": "function"
		}
	],
	"bytecode": "0x608060405234801561001057600080fd5b506100596040518060400160405280601981526020017f5472697020436f6e747261637420436f6e73747275637465640000000000000081525061005e60201b6103241760201c565b6101e1565b6100fa81604051602401610072919061015f565b6040516020818303038152906040527f41304fac000000000000000000000000000000000000000000000000000000007bffffffffffffffffffffffffffffffffffffffffffffffffffffffff19166020820180517bffffffffffffffffffffffffffffffffffffffffffffffffffffffff83818316178352505050506100fd60201b60201c565b50565b60008151905060006a636f6e736f6c652e6c6f679050602083016000808483855afa5050505050565b600061013182610181565b61013b818561018c565b935061014b81856020860161019d565b610154816101d0565b840191505092915050565b600060208201905081810360008301526101798184610126565b905092915050565b600081519050919050565b600082825260208201905092915050565b60005b838110156101bb5780820151818401526020810190506101a0565b838111156101ca576000848401525b50505050565b6000601f19601f8301169050919050565b610a15806101f06000396000f3fe608060405234801561001057600080fd5b50600436106100365760003560e01c80633fa673661461003b578063afe7ab3514610059575b600080fd5b610043610075565b6040516100509190610755565b60405180910390f35b610073600480360381019061006e919061058d565b6101c6565b005b60606001805480602002602001604051908101604052809291908181526020016000905b828210156101bd57838290600052602060002090600302016040518060600160405290816000820160009054906101000a900473ffffffffffffffffffffffffffffffffffffffff1673ffffffffffffffffffffffffffffffffffffffff1673ffffffffffffffffffffffffffffffffffffffff1681526020016001820180546101229061093e565b80601f016020809104026020016040519081016040528092919081815260200182805461014e9061093e565b801561019b5780601f106101705761010080835404028352916020019161019b565b820191906000526020600020905b81548152906001019060200180831161017e57829003601f168201915b5050505050815260200160028201548152505081526020019060010190610099565b50505050905090565b6102056040518060400160405280601581526020017f2573206861732063726561746564206120747269700000000000000000000000815250336103bd565b600160405180606001604052803373ffffffffffffffffffffffffffffffffffffffff16815260200183815260200142815250908060018154018082558091505060019003906000526020600020906003020160009091909190915060008201518160000160006101000a81548173ffffffffffffffffffffffffffffffffffffffff021916908373ffffffffffffffffffffffffffffffffffffffff16021790555060208201518160010190805190602001906102c4929190610482565b506040820151816002015550503373ffffffffffffffffffffffffffffffffffffffff167fd8ab1addb4776e18533ff9d348bf2cdd662298cd0bf63b431036c3ac9bca5b5a42836040516103199291906107c9565b60405180910390a250565b6103ba816040516024016103389190610777565b6040516020818303038152906040527f41304fac000000000000000000000000000000000000000000000000000000007bffffffffffffffffffffffffffffffffffffffffffffffffffffffff19166020820180517bffffffffffffffffffffffffffffffffffffffffffffffffffffffff8381831617835250505050610459565b50565b61045582826040516024016103d3929190610799565b6040516020818303038152906040527f319af333000000000000000000000000000000000000000000000000000000007bffffffffffffffffffffffffffffffffffffffffffffffffffffffff19166020820180517bffffffffffffffffffffffffffffffffffffffffffffffffffffffff8381831617835250505050610459565b5050565b60008151905060006a636f6e736f6c652e6c6f679050602083016000808483855afa5050505050565b82805461048e9061093e565b90600052602060002090601f0160209004810192826104b057600085556104f7565b82601f106104c957805160ff19168380011785556104f7565b828001600101855582156104f7579182015b828111156104f65782518255916020019190600101906104db565b5b5090506105049190610508565b5090565b5b80821115610521576000816000905550600101610509565b5090565b60006105386105338461082a565b6107f9565b90508281526020810184848401111561055057600080fd5b61055b8482856108fc565b509392505050565b600082601f83011261057457600080fd5b8135610584848260208601610525565b91505092915050565b60006020828403121561059f57600080fd5b600082013567ffffffffffffffff8111156105b957600080fd5b6105c584828501610563565b91505092915050565b60006105da83836106e7565b905092915050565b6105eb816108c0565b82525050565b6105fa816108c0565b82525050565b600061060b8261086a565b610615818561088d565b9350836020820285016106278561085a565b8060005b85811015610663578484038952815161064485826105ce565b945061064f83610880565b925060208a0199505060018101905061062b565b50829750879550505050505092915050565b600061068082610875565b61068a818561089e565b935061069a81856020860161090b565b6106a3816109ce565b840191505092915050565b60006106b982610875565b6106c381856108af565b93506106d381856020860161090b565b6106dc816109ce565b840191505092915050565b60006060830160008301516106ff60008601826105e2565b50602083015184820360208601526107178282610675565b915050604083015161072c6040860182610737565b508091505092915050565b610740816108f2565b82525050565b61074f816108f2565b82525050565b6000602082019050818103600083015261076f8184610600565b905092915050565b6000602082019050818103600083015261079181846106ae565b905092915050565b600060408201905081810360008301526107b381856106ae565b90506107c260208301846105f1565b9392505050565b60006040820190506107de6000830185610746565b81810360208301526107f081846106ae565b90509392505050565b6000604051905081810181811067ffffffffffffffff821117156108205761081f61099f565b5b8060405250919050565b600067ffffffffffffffff8211156108455761084461099f565b5b601f19601f8301169050602081019050919050565b6000819050602082019050919050565b600081519050919050565b600081519050919050565b6000602082019050919050565b600082825260208201905092915050565b600082825260208201905092915050565b600082825260208201905092915050565b60006108cb826108d2565b9050919050565b600073ffffffffffffffffffffffffffffffffffffffff82169050919050565b6000819050919050565b82818337600083830152505050565b60005b8381101561092957808201518184015260208101905061090e565b83811115610938576000848401525b50505050565b6000600282049050600182168061095657607f821691505b6020821081141561096a57610969610970565b5b50919050565b7f4e487b7100000000000000000000000000000000000000000000000000000000600052602260045260246000fd5b7f4e487b7100000000000000000000000000000000000000000000000000000000600052604160045260246000fd5b6000601f19601f830116905091905056fea26469706673582212204b85e0b052244546f3b37beb5fa3878c44ab808023884eb8f32c347559a5273d64736f6c63430008000033",
	"linkReferences": {},
	"deployedLinkReferences": {}
}