{
	"_format": "hh-sol-artifact-1",
	"contractName": "TripPortal",
	"sourceName": "contracts/TripPortal.sol",
	"abi": [
		{
			"inputs": [],
			"stateMutability": "payable",
			"type": "constructor"
		},
		{
			"anonymous": false,
			"inputs": [
				{
					"indexed": true,
					"internalType": "address",
					"name": "from",
					"type": "address"
				},
				{
					"indexed": false,
					"internalType": "uint256",
					"name": "timestamp",
					"type": "uint256"
				},
				{
					"indexed": false,
					"internalType": "string",
					"name": "location",
					"type": "string"
				}
			],
			"name": "NewTrip",
			"type": "event"
		},
		{
			"inputs": [
				{
					"internalType": "string",
					"name": "_location",
					"type": "string"
				}
			],
			"name": "addTrip",
			"outputs": [],
			"stateMutability": "nonpayable",
			"type": "function"
		},
		{
			"inputs": [],
			"name": "getAllTrips",
			"outputs": [
				{
					"components": [
						{
							"internalType": "address",
							"name": "creator",
							"type": "address"
						},
						{
							"internalType": "string",
							"name": "location",
							"type": "string"
						},
						{
							"internalType": "uint256",
							"name": "timestamp",
							"type": "uint256"
						}
					],
					"internalType": "struct TripPortal.Trip[]",
					"name": "",
					"type": "tuple[]"
				}
			],
			"stateMutability": "view",
			"type": "function"
		},
		{
			"inputs": [
				{
					"internalType": "address",
					"name": "",
					"type": "address"
				}
			],
			"name": "lastTripAt",
			"outputs": [
				{
					"internalType": "uint256",
					"name": "",
					"type": "uint256"
				}
			],
			"stateMutability": "view",
			"type": "function"
		}
	],
	"bytecode": "0x60806040526200004f6040518060400160405280601981526020017f5472697020436f6e747261637420436f6e7374727563746564000000000000008152506200007760201b620005ac1760201c565b606444426200005f9190620001c4565b6200006b919062000261565b60028190555062000308565b62000117816040516024016200008e919062000184565b6040516020818303038152906040527f41304fac000000000000000000000000000000000000000000000000000000007bffffffffffffffffffffffffffffffffffffffffffffffffffffffff19166020820180517bffffffffffffffffffffffffffffffffffffffffffffffffffffffff83818316178352505050506200011a60201b60201c565b50565b60008151905060006a636f6e736f6c652e6c6f679050602083016000808483855afa5050505050565b60006200015082620001a8565b6200015c8185620001b3565b93506200016e8185602086016200022b565b6200017981620002f7565b840191505092915050565b60006020820190508181036000830152620001a0818462000143565b905092915050565b600081519050919050565b600082825260208201905092915050565b6000620001d18262000221565b9150620001de8362000221565b9250827fffffffffffffffffffffffffffffffffffffffffffffffffffffffffffffffff0382111562000216576200021562000299565b5b828201905092915050565b6000819050919050565b60005b838110156200024b5780820151818401526020810190506200022e565b838111156200025b576000848401525b50505050565b60006200026e8262000221565b91506200027b8362000221565b9250826200028e576200028d620002c8565b5b828206905092915050565b7f4e487b7100000000000000000000000000000000000000000000000000000000600052601160045260246000fd5b7f4e487b7100000000000000000000000000000000000000000000000000000000600052601260045260246000fd5b6000601f19601f8301169050919050565b610fbe80620003186000396000f3fe608060405234801561001057600080fd5b50600436106100415760003560e01c80633fa673661461004657806381d8aae114610064578063afe7ab3514610094575b600080fd5b61004e6100b0565b60405161005b9190610b7c565b60405180910390f35b61007e6004803603810190610079919061082a565b610201565b60405161008b9190610c50565b60405180910390f35b6100ae60048036038101906100a99190610853565b610219565b005b60606001805480602002602001604051908101604052809291908181526020016000905b828210156101f857838290600052602060002090600302016040518060600160405290816000820160009054906101000a900473ffffffffffffffffffffffffffffffffffffffff1673ffffffffffffffffffffffffffffffffffffffff1673ffffffffffffffffffffffffffffffffffffffff16815260200160018201805461015d90610e41565b80601f016020809104026020016040519081016040528092919081815260200182805461018990610e41565b80156101d65780601f106101ab576101008083540402835291602001916101d6565b820191906000526020600020905b8154815290600101906020018083116101b957829003601f168201915b50505050508152602001600282015481525050815260200190600101906100d4565b50505050905090565b60036020528060005260406000206000915090505481565b42601e600360003373ffffffffffffffffffffffffffffffffffffffff1673ffffffffffffffffffffffffffffffffffffffff168152602001908152602001600020546102669190610d6d565b106102a6576040517f08c379a000000000000000000000000000000000000000000000000000000000815260040161029d90610c30565b60405180910390fd5b42600360003373ffffffffffffffffffffffffffffffffffffffff1673ffffffffffffffffffffffffffffffffffffffff168152602001908152602001600020819055506103296040518060400160405280601581526020017f257320686173206372656174656420612074726970000000000000000000000081525033610645565b600160405180606001604052803373ffffffffffffffffffffffffffffffffffffffff16815260200183815260200142815250908060018154018082558091505060019003906000526020600020906003020160009091909190915060008201518160000160006101000a81548173ffffffffffffffffffffffffffffffffffffffff021916908373ffffffffffffffffffffffffffffffffffffffff16021790555060208201518160010190805190602001906103e892919061070a565b50604082015181600201555050606444426104039190610d6d565b61040d9190610e73565b6002819055506004600254116105595761045c6040518060400160405280600781526020017f257320776f6e210000000000000000000000000000000000000000000000000081525033610645565b60006509184e72a0009050478111156104aa576040517f08c379a00000000000000000000000000000000000000000000000000000000081526004016104a190610bf0565b60405180910390fd5b60003373ffffffffffffffffffffffffffffffffffffffff16826040516104d090610b67565b60006040518083038185875af1925050503d806000811461050d576040519150601f19603f3d011682016040523d82523d6000602084013e610512565b606091505b5050905080610556576040517f08c379a000000000000000000000000000000000000000000000000000000000815260040161054d90610c10565b60405180910390fd5b50505b3373ffffffffffffffffffffffffffffffffffffffff167fd8ab1addb4776e18533ff9d348bf2cdd662298cd0bf63b431036c3ac9bca5b5a42836040516105a1929190610c6b565b60405180910390a250565b610642816040516024016105c09190610b9e565b6040516020818303038152906040527f41304fac000000000000000000000000000000000000000000000000000000007bffffffffffffffffffffffffffffffffffffffffffffffffffffffff19166020820180517bffffffffffffffffffffffffffffffffffffffffffffffffffffffff83818316178352505050506106e1565b50565b6106dd828260405160240161065b929190610bc0565b6040516020818303038152906040527f319af333000000000000000000000000000000000000000000000000000000007bffffffffffffffffffffffffffffffffffffffffffffffffffffffff19166020820180517bffffffffffffffffffffffffffffffffffffffffffffffffffffffff83818316178352505050506106e1565b5050565b60008151905060006a636f6e736f6c652e6c6f679050602083016000808483855afa5050505050565b82805461071690610e41565b90600052602060002090601f016020900481019282610738576000855561077f565b82601f1061075157805160ff191683800117855561077f565b8280016001018555821561077f579182015b8281111561077e578251825591602001919060010190610763565b5b50905061078c9190610790565b5090565b5b808211156107a9576000816000905550600101610791565b5090565b60006107c06107bb84610ccc565b610c9b565b9050828152602081018484840111156107d857600080fd5b6107e3848285610dff565b509392505050565b6000813590506107fa81610f71565b92915050565b600082601f83011261081157600080fd5b81356108218482602086016107ad565b91505092915050565b60006020828403121561083c57600080fd5b600061084a848285016107eb565b91505092915050565b60006020828403121561086557600080fd5b600082013567ffffffffffffffff81111561087f57600080fd5b61088b84828501610800565b91505092915050565b60006108a08383610af9565b905092915050565b6108b181610dc3565b82525050565b6108c081610dc3565b82525050565b60006108d182610d0c565b6108db8185610d2f565b9350836020820285016108ed85610cfc565b8060005b85811015610929578484038952815161090a8582610894565b945061091583610d22565b925060208a019950506001810190506108f1565b50829750879550505050505092915050565b600061094682610d17565b6109508185610d4b565b9350610960818560208601610e0e565b61096981610f60565b840191505092915050565b600061097f82610d17565b6109898185610d5c565b9350610999818560208601610e0e565b6109a281610f60565b840191505092915050565b60006109ba603483610d5c565b91507f547279696e6720746f207769746864726177206d6f7265206d6f6e657920746860008301527f616e2074686520636f6e7472616374206861732e0000000000000000000000006020830152604082019050919050565b6000610a20602783610d5c565b91507f4661696c656420746f207769746864726177206d6f6e65792066726f6d20636f60008301527f6e74726163742e000000000000000000000000000000000000000000000000006020830152604082019050919050565b6000610a86602983610d5c565b91507f4d7573742077616974203330207365636f6e6473206265666f7265207761766960008301527f6e6720616761696e2e00000000000000000000000000000000000000000000006020830152604082019050919050565b6000610aec600083610d40565b9150600082019050919050565b6000606083016000830151610b1160008601826108a8565b5060208301518482036020860152610b29828261093b565b9150506040830151610b3e6040860182610b49565b508091505092915050565b610b5281610df5565b82525050565b610b6181610df5565b82525050565b6000610b7282610adf565b9150819050919050565b60006020820190508181036000830152610b9681846108c6565b905092915050565b60006020820190508181036000830152610bb88184610974565b905092915050565b60006040820190508181036000830152610bda8185610974565b9050610be960208301846108b7565b9392505050565b60006020820190508181036000830152610c09816109ad565b9050919050565b60006020820190508181036000830152610c2981610a13565b9050919050565b60006020820190508181036000830152610c4981610a79565b9050919050565b6000602082019050610c656000830184610b58565b92915050565b6000604082019050610c806000830185610b58565b8181036020830152610c928184610974565b90509392505050565b6000604051905081810181811067ffffffffffffffff82111715610cc257610cc1610f31565b5b8060405250919050565b600067ffffffffffffffff821115610ce757610ce6610f31565b5b601f19601f8301169050602081019050919050565b6000819050602082019050919050565b600081519050919050565b600081519050919050565b6000602082019050919050565b600082825260208201905092915050565b600081905092915050565b600082825260208201905092915050565b600082825260208201905092915050565b6000610d7882610df5565b9150610d8383610df5565b9250827fffffffffffffffffffffffffffffffffffffffffffffffffffffffffffffffff03821115610db857610db7610ea4565b5b828201905092915050565b6000610dce82610dd5565b9050919050565b600073ffffffffffffffffffffffffffffffffffffffff82169050919050565b6000819050919050565b82818337600083830152505050565b60005b83811015610e2c578082015181840152602081019050610e11565b83811115610e3b576000848401525b50505050565b60006002820490506001821680610e5957607f821691505b60208210811415610e6d57610e6c610f02565b5b50919050565b6000610e7e82610df5565b9150610e8983610df5565b925082610e9957610e98610ed3565b5b828206905092915050565b7f4e487b7100000000000000000000000000000000000000000000000000000000600052601160045260246000fd5b7f4e487b7100000000000000000000000000000000000000000000000000000000600052601260045260246000fd5b7f4e487b7100000000000000000000000000000000000000000000000000000000600052602260045260246000fd5b7f4e487b7100000000000000000000000000000000000000000000000000000000600052604160045260246000fd5b6000601f19601f8301169050919050565b610f7a81610dc3565b8114610f8557600080fd5b5056fea26469706673582212203d2562dd2e89b8c439fe6d9006c41db4e8afcf6176bcfe416ee674c0d02ecf7c64736f6c63430008000033",
	"linkReferences": {},
	"deployedLinkReferences": {}
}